:1000000000800010C9000000000000000000000097
:10001000C5000000C5000000C50000000000000091
:10002000000000000000000000000000C50000000B
:10003000C500000000000000C5000000C500000071
:10004000C5000000C5000000C5000000C50000009C
:10005000C5000000C5000000C5000000C50000008C
:10006000C5000000C5000000C5000000C50000007C
:10007000C5000000C5000000C5000000C50000006C
:10008000C5000000C5000000C5000000C50000005C
:10009000C5000000C5000000C5000000C50000004C
:1000A000C5000000C5000000C5000000C50000003C
:1000B000C5000000C5000000C5000000C50000002C
:1000C000C5000000FEE70000684620F007018D46ED
:1000D00019B500F08DF81549154A914208D1154916
:1000E000154A914212D109E058589850043301E062
:1000F000124C00239818A042F6D3F0E7104B114A97
:1001000000210BE058589850043301E00E4C0023B6
:100110009818A042F6D3F1E743F8041B9342FBD3AF
:1001200000F098F9BDE819408546704710080000B6
:100130000000001010080000000000100400001073
:10014000040000104C00001000000010224B10B5FD
:10015000D3F88820D3F80C11C2F30162032A01F00E
:1001600003011E4A25D10129D3F88840D3F888001D
:100170000BD00229D3F804114FEA44434FEA53430A
:1001800003F1010308D0164C08E0D3F8041163040E
:100190005B0C0133134C01E04FF47A446343C0F32A
:1001A00007400130C9B2B3FBF0F30131B3FBF1F307
:1001B0000FE0D3F80431DBB20133012903D0022967
:1001C00003D0094903E0094901E04FF4FA41B1FBCA
:1001D000F3F3136010BD00BF00C00F40000000101B
:1001E00000127A0000366E0100093D00001BB700C6
:1001F000334B2022C3F8A0211946D1F8A021304B5F
:100200005206FAD50322C3F804212E4A0120C3F86E
:100210000C01AA21C3F884205522C3F88C10C3F81E
:100220008C20C3F88000C3F88C10C3F88C20D3F85E
:10023000882012F0806F224AF9D00323C2F8803060
:10024000AA23C2F88C305523C2F88C30D2F888101B
:100250001B4B11F0407FF9D02322C3F8A420AA2120
:1002600055220120C3F8AC10C3F8AC20C3F8A0009D
:10027000C3F8AC10C3F8AC20D3F8A82012F4806FF8
:100280000F4AF9D00323C2F8A030AA23C2F8AC3039
:100290005523C2F8AC30D2F8A810094B11F4407FB6
:1002A000F9D009490022C3F8A821C3F8AC21C3F84A
:1002B000C410C3F8C82145F23A021A60704700BF63
:1002C00000C00F4063000500DE872804524B10B5C4
:1002D000D3F80C21AA2142F00102C3F80C21D3F873
:1002E0008020C3F880205522C3F88C10C3F88C20DE
:1002F000D3F88000C3F88000C3F88C10C3F88C20BA
:10030000D3F8840040F00400C3F88400C3F88C10D4
:10031000C3F88C20D3F8800040F00100C3F88000BF
:10032000C3F88C10C3F88C20D3F8042142F00202E9
:10033000C3F80421D3F88820374C5201FAD5D4F8F9
:10034000803043F00203C4F88030AA23C4F88C3014
:100350005523C4F88C30FFF7F9FE304A4FF0FF33D5
:10036000C2F88030D4F8C43043F00203C4F8C4307B
:10037000D4F8C43043F00403C4F8C430D4F8A8312E
:1003800043F01403C4F8A8314FF04023596941F0F9
:1003900001015961996941F4CB3141F07A019961C8
:1003A000596841F002015960116841F00201116081
:1003B0005A6842F001025A6003F580435A6842F0DD
:1003C00001025A60D4F8C43043F40043C4F8C43086
:1003D000134B1A6842F480021A60124B5A685A6032
:1003E0001A6942F015021A615A6C42F03F025A64CF
:1003F0001A6842F0804242F05A021A605A6842F08B
:1004000001025A601A6C42F088021A645A6C42F077
:1004100002025A6410BD00BF00C00F4000E100E0BE
:1004200000C0092000C00240044B05499A6801FB46
:10043000002099688142FCD3704700BF00800040D3
:100440007A960100024B5A6942F480025A61704761
:1004500000C0092070B5254C8EB0FFF737FFFFF7BD
:10046000F1FF20234FF4E13023706370A370E37039
:10047000237100F047F84FF4E13000F075F84FF4C5
:10048000E13000F0ABF81A4800F01EF9194800F00E
:1004900025F94FF47A70FFF7C7FF174800F01EF9EF
:1004A0004FF44870FFF7C0FF144800F017F94FF4FD
:1004B0004870FFF7B9FF124800F006F926460B4CCA
:1004C00068466D4600F014F90FCD0FC40FCD0FC470
:1004D0000FCD0FC42B68236096F8300000F0C8F8E9
:1004E0004FF4FA70FFF7A0FFE9E700BF0400001027
:1004F000900700009E070000B1070000E50700001C
:1005000000080000164B1A68164B9209D3F8C41065
:1005100092FBF0F041F00801C3F8C410D3F8A81121
:10052000C0F3072221F0C001C3F8A811D3F8A81125
:10053000C0B2C3F8A811A3F55023196821F0F00147
:100540001960196841F050011960A3F50033832147
:1005500019731A71032218701A7307221A727047DE
:100560000000001000C00F401A4B1A681A4B920985
:10057000D3F8C41092FBF0F041F01001C3F8C4109E
:10058000D3F8A811C0F3072221F44071C3F8A811D1
:10059000D3F8A811C0B2C3F8A811A3F55023196865
:1005A00021F040411960196841F080411960596893
:1005B00021F00C015960596841F001015960A3F51F
:1005C000E033832119731A71032218701A730722FA
:1005D0001A7270470000001000C00F40164B1A68D6
:1005E000164B9209D3F8C41092FBF0F041F0007161
:1005F000C3F8C410D3F8AC11C0F3072221F4402192
:10060000C3F8AC11D3F8AC11C0B2C3F8AC11A3F568
:100610005023196821F00F011960196841F00A018F
:10062000196003F5E023832119731A7103221870EE
:100630001A7307221A7270470000001000C00F40A2
:10064000044A137D03F02003DBB2002BF9D0014BE9
:100650001870704700C00040044A137D03F0200367
:10066000DBB2002BF9D0014B18707047000001403D
:10067000044A137D03F02003DBB2002BF9D0014BB9
:100680001870704700C00940034A137DD907FCD594
:10069000014B1878704700BF0000014070B5054657
:1006A0000E4639B9451EFFF7EFFF0A280BD005F8B3
:1006B000010FF8E70024FFF7E7FF0A2803D02855C9
:1006C0000134B442F7DB70BD10B5441E01E0FFF702
:1006D000B7FF14F8010F0028F9D110BD10B5441E62
:1006E00001E0FFF7B9FF14F8010F0028F9D110BDA0
:1006F000F0B5002397B00446202201AD5A550133CE
:10070000532BFAD1FFF7C0FF242806D12846002139
:10071000FFF7C4FF2846FFF7D7FF9DF804309DF888
:100720000B2023709DF805309DF8196063709DF8CB
:1007300006309DF80A00A3709DF807309DF81A5006
:10074000E3709DF808309DF80C1023710A2303FB19
:10075000002003FB06559DF80D209DF817709DF8AD
:10076000186003FB012103FB07639DF81520A0F52A
:100770000470A1F50471A5F50475A3F50473A062D6
:100780006361A561E16284F83020204617B0F0BDB6
:100790005561727420496E6974204F4B0A002450D1
:1007A0004D544B3232302C313030302A31460D0A24
:1007B0000024504D544B3331342C302C312C302C00
:1007C000302C302C302C302C302C302C302C302C49
:1007D000302C302C302C302C302C302C302C302A3B
:1007E00032390D0A0024504D544B3330302C313007
:1007F00030302C302C302C302C302A31430D0A0074
:1008000047505320496E6974204F4B0A0000000086
:0408100000E1F50509
:04000003000000C930
:00000001FF
